:1000000005308A00812D0000FF00030E8301A1004E
:100010000A08A0008A010408A2007708A300780853
:10002000A4007908A5007A08A600831383128B1E0A
:100030001B280B1938288C308400801E21288C1A2C
:100040003B288C308400001C27280C183E282208EE
:1000500084002308F7002408F8002508F900260882
:10006000FA0020088A00210E8300FF0E7F0E09008F
:100070008A110A12AE298A110A12AA2B8A110A12AF
:10008000BD2B0A108A100A11820728340C3401345F
:1000900006348E30F70083162C08F8002B08F90080
:1000A000FA01F808031D5E287908F800F901083004
:1000B000F702F808031D5E28F70166280310F81BF5
:1000C0006528F90DF80DF7035E28F8138312080070
:1000D0008030831C6E288316B00683128316B50108
:1000E000B6012C08B4003008B4062B0803195C29AB
:1000F000B300F7002F0803196529B302031901297A
:10010000031CBF283008B900B9173108B8003208FD
:10011000B700B6010310B90CB80CB70CB60CB30B92
:100120008928B41F962835147929351033103516CF
:10013000AE30840083138E293512B41BA928331CDA
:10014000B428B90CB80CB70CB60CF70A031974290B
:10015000B428B91BB7280310B60DB70DB80DB90DEB
:10016000F70303197429A9283517212935132C08F9
:10017000B400B41FBD28B9176D29B9136D292F0814
:10018000B300F7002B08B3022C08B900B9172D08EB
:10019000B8002E08B700B6010310B90CB80CB70CA4
:1001A000B60CB30BCB28B41FD828B5147929B510D9
:1001B0003310B516B230840083138E29B512B41BE8
:1001C000EB28331CF628B90CB80CB70CB60CF70AA0
:1001D00003197429F628B91BF9280310B60DB70DB9
:1001E000B80DB90DF70303197429EB28B5172129A8
:1001F000B5133008B400B41FFF28B9176D29B9131F
:100200006D293008B900B9173108B8003208B700B5
:10021000B41F0E29B913351579293511B6013310DC
:10022000AE30840083138E29B41B37292C08B40008
:10023000331C2129B90CB80CB70CB60CF70A0319FA
:100240007429B61F3229B70A031D3229B80A031DC3
:100250003229B90A031D3229B90CB80CB70CF70AB8
:1002600003197429351BB628B51BF8285629803088
:10027000B906B91F3F2979293008B4004C292C0848
:10028000B400B908031D4C29B808031D4C29B70850
:10029000031D4C29F7016D29B91B56290310B60D12
:1002A000B70DB80DB90DF70B4C297429B41F5A2995
:1002B000B9176D29B9136D292F08F7003008B90057
:1002C0003108B8003208B7006D292B08F7002C0858
:1002D000B9002D08B8002E08B7003908F800380812
:1002E000F9003708FA00AC29F701F801F901FA0121
:1002F000AC29B601B709B809B909B609B60A031D90
:100300008729B70A031D8729B80A0319B90A3518BE
:100310009528B518D72835190D293C290008B707A5
:10032000031C9829B80A031D9829B90A0319331424
:1003300084030008B807031CA029B90A0319331461
:1003400084030008801F803AB90703183314351A54
:100350009C28B51ADE281429831208006330810016
:1003600083160810013083128806ED01ED016D0837
:10037000013C031CDE296D0DF700F70DF70DF83079
:10038000F7051F08C73977049F000C30F700F70BFB
:10039000C729CA29000003106D0D383E840083135D
:1003A0001F151F19D1291E08FA0083161E08800088
:1003B000840A7A0880008312ED0AB729EB0196308F
:1003C000EA00EF01EE01ED01EC01F301F201F101B0
:1003D000F001FE01FD01FC01FB018316A301A20156
:1003E000A101A001A701A601A501A40183126B0828
:1003F0008316AC0083126A088316AB00831249206F
:100400007A08F3007908F2007808F1007708F00024
:1004100039088316AC00831238088316AB008312A8
:1004200049207A08FE007908FD007808FC0077086A
:10043000FB00831473088316AE007208AD007108C8
:10044000AC007008AB007E08B2007D08B1007C08EB
:10045000B0007B08AF00831268207A088316A300DF
:100460007908A2007808A1007708A0002008F7000A
:100470002108F8002208F9002308FA00F813770889
:10048000A8007808A9007908AA007A08AB00B20190
:10049000B1014030B0008030AF002B08B6002A0810
:1004A000B5002908B4002808B3003008B7003408A4
:1004B000B706B71F602A03110310B01B0314932A59
:1004C0003008B7003308B8002F08B80203196E2AA5
:1004D000B71F932A0308013A8300932A3408B8000F
:1004E0003008B80203197A2AB71F932A0308013A81
:1004F0008300932A3508B8003108B8020319862A08
:10050000B71F932A0308013A8300932A3608B800DC
:100510003208B8020319922AB71F932A0308013A36
:100520008300932A0310031C8C2B8312B608031D2F
:100530009F2AB708031D9F2AB7010230B600831611
:100540002308AE002208AD002108AC002008AB0053
:10055000B201B1014030B0007F30AF002B08031969
:100560001E2BB3002F0803191E2BB3070318BF2A35
:100570007F30B302031C1E2B03191E2BC32A8130AC
:10058000B30703181E2B3308F700F801F901FA012D
:100590002C08B700B7172D08B6002E08B500183084
:1005A000B300B401351CEC2A3208FA07031CDE2A1A
:1005B000F90A031DDE2AF80A0319B4173108F907EE
:1005C000031CE52AF80A0319B4173008AD00AD176B
:1005D0002D08F8070318B417B40DF80CF90CFA0C31
:1005E000B70CB60CB50C0310B30BD12A0130F707CA
:1005F00003181E2BF81B032BB70DFA0DF90DF80D80
:10060000F70303191E2BB71F142BFA0A031D142B13
:10061000F90A031D142BF80A031D142BF80CF90C0E
:10062000FA0CF70A03191E2B2C08B4003008B40684
:10063000B41F1C2BF817222BF813222BF701F801FB
:10064000F901FA017A088312EF007908EE007808C0
:10065000ED007708EC0037088316AC0083123608EB
:100660008316AB008312492083107A088316AE00EC
:100670007908AD007808AC007708AB0083126F08EA
:100680008316B20083126E088316B10083126D08C0
:100690008316B00083126C088316AF0083126820A3
:1006A0007A088316AE007908AD007808AC007708A8
:1006B000AB008E30F7002B08F7022C08F9002D084C
:1006C000F800F917F7080319702B0310F908031D38
:1006D0006C2BF8080319702BF90CF80CF70B652B31
:1006E000AC1F772BF809F909F80A0319F90A7908F8
:1006F0008312B7007808B6003708003C03188B2B2C
:10070000FF3A031D872B36088F3C03188B2B0130D3
:10071000B7009030B600831683123608F800370809
:10072000F9002D1CA62B3708F9003608F800F90C43
:10073000F80CF90CF80CF90C78089500F90C790C08
:100740003039F7001708CF39770497000B118A1159
:100750000A1227283C305A07840083138C1EAE2BC4
:100760001A088000DA0A5A08093C0318B92B2D161A
:10077000DA018C128A110A1227280C108A110A1227
:100780002728502BA022ED3AEC30F4377210F33CBE
:100790007317000020102010761031173010201031
:1007A00020102010000120102010201020102010F8
:1007B00020102010201000016230840083130008F4
:1007C0000319EF2B0230F800F701F70BE52BF80BBC
:1007D000E42B9730F700F70BEB2B800BE22B080094
:1007E0006918F42B0812F52B0816831608128312C9
:1007F000E918FC2B8812FD2B8816831688128312A9
:100800006919042C0813052C081783160813831282
:10081000E9190C2C88130D2C8817831688130000F7
:10082000881183128815142C152C831688118312B5
:100830008811080083160811831208112730F70069
:10084000F70B202C232CE60803192B2C83160811F8
:10085000831208152F2C831608118312081100002B
:100860008316881183128811670EE8000F30E8059F
:100870006808E900F02367080F39E800E900F02371
:100880000800831608118312081183168811831239
:1008900088110F30E200DC23DD015D08023C031CFF
:1008A000592C0330E900F0230530E200DC23DD0A97
:1008B0004D2C0230E900F023DD015D08033C031CF0
:1008C0006D2C5D084120DE00E6015E08E7001A2479
:1008D0000530E200DC23DD0A5D2C8A110A12EA2DC4
:1008E000630B732C762C4030E400772CE40101304C
:1008F0006202E40764088038E500E6016508E70065
:100900001A24080061080C3A03198D2C063A0319C1
:10091000952C023A03199B2CA02CE6010130E7002C
:100920001A240230E200DC23A52C0130E200023060
:10093000E3007024A52CE6011030E7001A24A52C52
:100940000130E6006108E7001A2408000B08DD000A
:100950008B13831603178C170C14000000008312EE
:100960000C087F390319ED2C0313DE0003170D0863
:100970000313DF0003170F080313E0005E08E10014
:1009800082245F0803178D000313600803178F008C
:1009900083168C170C140000000083120C0D0E0D32
:1009A0007F390319ED2C0313DE0003170D08031321
:1009B000DF0003170F080313E0005E08E100822444
:1009C0005F0803178D000313600803178F008D0A5B
:1009D00003198F0A0313A92C03170313DD1B8B17AD
:1009E0000800E21B042D0F30F700610EF7050A30F6
:1009F00077020318FE2C3030F707002D6208F70746
:100A000077080C1E012D99000F30E1050A306102B4
:100A100003180C2D30300E2DE2136208E107610837
:100A20000C1E102D990008006308393C031C1C2D76
:100A300030306302F800232D6308403C0318232D57
:100A400037306302F80008006108E30014257808D5
:100A5000E1006208E30014257808E200E20EF030BD
:100A6000E20562086104F8008A110A12D62E6008B5
:100A7000F8015F0203183F2D5F08F7004B2DF701C7
:100A80000830E100DF0DF70D600877020318F7006A
:100A9000F80DE10B422D080078085D08DF00643096
:100AA000E00037257708DD0078083030031D5F2D22
:100AB000DE1C662DDE19662D5E1A2030622DDE11D9
:100AC0005E125E14F8077808E10082245D08DF00FA
:100AD0000A30E00037257708DD0078083030031D44
:100AE000772DDE197B2D5E1C7B2D5E1A2030F807DA
:100AF0007808E10082243030DD075D08E1008224BF
:100B00000800840183131F3083050C30831699007D
:100B1000A23098009030831298002D10AD102D1146
:100B2000AD11AE01AF01B0010A30B100B201B301A5
:100B3000B501B401B701B6012D12DA01DB01FF30B6
:100B4000DC0083161F149F141F159F118312A70129
:100B5000A801B801B901BA01BB011F139F17831681
:100B60009F1783121F1483161F109F101F159F11AC
:100B70000108C039073881008530831290000030A9
:100B8000F8000538920063308316920083125C11DE
:100B90005C0883168700831207110C309700F03031
:100BA0009D058B1683168C16C03083128B04633020
:100BB0008100FF3083168500860080308700831215
:100BC000DC0000308316880009148914091581138C
:100BD0008312412C6430E200DC230130E200E300A8
:100BE0007024C13003178D0003308F000313A62437
:100BF0000130E2000230E3007024CA3003178D0098
:100C000003308F000313A6248316061483120618DC
:100C1000122E0A30E200DC23831606148312061C0F
:100C20000C2E2D148316861483128618242E0A3057
:100C3000E200DC23831686148312861C1A2E95018B
:100C40001708CF3997002D10831606158312061941
:100C5000482E0A30E200DC23831606158312061D97
:100C60002C2EB60A0319B70A3708003C0318432E86
:100C7000FF3A031D3F2E36088F3C0318432E0130E8
:100C8000B7009030B600193095001708CF3997009B
:100C90008316061583120619672E0A30E200DC233C
:100CA000831606158312061D502E36080319B70346
:100CB000B603B708031D622E3608013C031C622EE2
:100CC000B701B601323095001708CF3997002D1EB5
:100CD000942E0B138B138B1B6A2EB501B4013908AC
:100CE000DD003808DE003B08DF003A08E000340889
:100CF000E1003730E200F1245D08E1003730E20026
:100D0000F1245E08E1003730E200F1245F08E100E1
:100D10003730E200F1246008E1003730E200F124CE
:100D20002D12AD14C0308B04AD1C152FAD10DB019E
:100D30005B08093C031CA82E3C305B07840083132E
:100D40000008DD00E1003730E200F124DB0A982ED4
:100D5000B301B2013208043C031CB52E4630320701
:100D6000840083138001B20AAA2EB2013208093C22
:100D7000031CE12E46303307F800FA010318FA0A83
:100D80007808DD007A08DE003C30320784008313E7
:100D90000008DF00013032073C3E84008313000866
:100DA000E0005F08E1006008E200242D5D08840097
:100DB00083135E18831778088000B30A0230B207E5
:100DC000B62E0130E200E3007024D33003178D000B
:100DD00003308F000313A6240130E200E3007024E7
:100DE0004608DD001B30DE004C252030E100822467
:100DF0004708DD001B30DE004C252030E100822456
:100E00004808DD001B30DE004C252030E100822444
:100E10004908DD001B30DE004C252030E100822433
:0E0E20004A08DD001B30DE004C25042E630066
:02400E00323F3F
:00000001FF
;PIC16F877
;CRC=1782  CREATED="31-Ara-14 15:37"
